{
  "_format": "hh-sol-artifact-1",
  "contractName": "LandRecord",
  "sourceName": "contracts/LandRecord.sol",
  "abi": [
    {
      "anonymous": false,
      "inputs": [
        {
          "indexed": true,
          "internalType": "uint256",
          "name": "id",
          "type": "uint256"
        },
        {
          "indexed": false,
          "internalType": "address",
          "name": "wallet",
          "type": "address"
        },
        {
          "indexed": false,
          "internalType": "string",
          "name": "documentHash",
          "type": "string"
        }
      ],
      "name": "LandRegistered",
      "type": "event"
    },
    {
      "anonymous": false,
      "inputs": [
        {
          "indexed": true,
          "internalType": "uint256",
          "name": "id",
          "type": "uint256"
        }
      ],
      "name": "LandVerified",
      "type": "event"
    },
    {
      "inputs": [
        {
          "internalType": "address",
          "name": "_wallet",
          "type": "address"
        }
      ],
      "name": "getHashesByWallet",
      "outputs": [
        {
          "internalType": "string[]",
          "name": "",
          "type": "string[]"
        }
      ],
      "stateMutability": "view",
      "type": "function"
    },
    {
      "inputs": [
        {
          "internalType": "string",
          "name": "_documentHash",
          "type": "string"
        }
      ],
      "name": "getLandByHash",
      "outputs": [
        {
          "components": [
            {
              "internalType": "uint256",
              "name": "id",
              "type": "uint256"
            },
            {
              "internalType": "address",
              "name": "wallet",
              "type": "address"
            },
            {
              "internalType": "string",
              "name": "documentHash",
              "type": "string"
            },
            {
              "internalType": "bool",
              "name": "verified",
              "type": "bool"
            }
          ],
          "internalType": "struct LandRecord.Land",
          "name": "",
          "type": "tuple"
        }
      ],
      "stateMutability": "view",
      "type": "function"
    },
    {
      "inputs": [
        {
          "internalType": "string",
          "name": "",
          "type": "string"
        }
      ],
      "name": "hashToLandId",
      "outputs": [
        {
          "internalType": "uint256",
          "name": "",
          "type": "uint256"
        }
      ],
      "stateMutability": "view",
      "type": "function"
    },
    {
      "inputs": [],
      "name": "landCount",
      "outputs": [
        {
          "internalType": "uint256",
          "name": "",
          "type": "uint256"
        }
      ],
      "stateMutability": "view",
      "type": "function"
    },
    {
      "inputs": [
        {
          "internalType": "uint256",
          "name": "",
          "type": "uint256"
        }
      ],
      "name": "lands",
      "outputs": [
        {
          "internalType": "uint256",
          "name": "id",
          "type": "uint256"
        },
        {
          "internalType": "address",
          "name": "wallet",
          "type": "address"
        },
        {
          "internalType": "string",
          "name": "documentHash",
          "type": "string"
        },
        {
          "internalType": "bool",
          "name": "verified",
          "type": "bool"
        }
      ],
      "stateMutability": "view",
      "type": "function"
    },
    {
      "inputs": [
        {
          "internalType": "string",
          "name": "_documentHash",
          "type": "string"
        }
      ],
      "name": "registerLand",
      "outputs": [],
      "stateMutability": "nonpayable",
      "type": "function"
    },
    {
      "inputs": [
        {
          "internalType": "uint256",
          "name": "_id",
          "type": "uint256"
        }
      ],
      "name": "verifyLand",
      "outputs": [],
      "stateMutability": "nonpayable",
      "type": "function"
    },
    {
      "inputs": [
        {
          "internalType": "address",
          "name": "",
          "type": "address"
        },
        {
          "internalType": "uint256",
          "name": "",
          "type": "uint256"
        }
      ],
      "name": "walletToHashes",
      "outputs": [
        {
          "internalType": "string",
          "name": "",
          "type": "string"
        }
      ],
      "stateMutability": "view",
      "type": "function"
    }
  ],
  "bytecode": "0x6080604052348015600f57600080fd5b506114b08061001f6000396000f3fe608060405234801561001057600080fd5b50600436106100885760003560e01c8063e261f1e51161005b578063e261f1e51461013b578063ec1d46751461016e578063f9c43bdf1461019e578063fbed216b146101ba57610088565b806332bf6b881461008d57806359a8001d146100bd578063608f2ff7146100ed578063d7bce6581461011d575b600080fd5b6100a760048036038101906100a29190610ac6565b6101d6565b6040516100b49190610c66565b60405180910390f35b6100d760048036038101906100d29190610ac6565b610376565b6040516100e49190610c97565b60405180910390f35b61010760048036038101906101029190610d0a565b6103a4565b6040516101149190610d94565b60405180910390f35b61012561045d565b6040516101329190610c97565b60405180910390f35b61015560048036038101906101509190610db6565b610463565b6040516101659493929190610e01565b60405180910390f35b61018860048036038101906101839190610e4d565b610548565b6040516101959190610f3c565b60405180910390f35b6101b860048036038101906101b39190610db6565b610660565b005b6101d460048036038101906101cf9190610ac6565b610703565b005b6101de61092c565b60006002836040516101f09190610f9a565b908152602001604051809103902054905060008103610244576040517f08c379a000000000000000000000000000000000000000000000000000000000815260040161023b90610ffd565b60405180910390fd5b600080828152602001908152602001600020604051806080016040529081600082015481526020016001820160009054906101000a900473ffffffffffffffffffffffffffffffffffffffff1673ffffffffffffffffffffffffffffffffffffffff1673ffffffffffffffffffffffffffffffffffffffff1681526020016002820180546102d19061104c565b80601f01602080910402602001604051908101604052809291908181526020018280546102fd9061104c565b801561034a5780601f1061031f5761010080835404028352916020019161034a565b820191906000526020600020905b81548152906001019060200180831161032d57829003601f168201915b505050505081526020016003820160009054906101000a900460ff161515151581525050915050919050565b6002818051602081018201805184825260208301602085012081835280955050505050506000915090505481565b600160205281600052604060002081815481106103c057600080fd5b906000526020600020016000915091505080546103dc9061104c565b80601f01602080910402602001604051908101604052809291908181526020018280546104089061104c565b80156104555780601f1061042a57610100808354040283529160200191610455565b820191906000526020600020905b81548152906001019060200180831161043857829003601f168201915b505050505081565b60035481565b60006020528060005260406000206000915090508060000154908060010160009054906101000a900473ffffffffffffffffffffffffffffffffffffffff16908060020180546104b29061104c565b80601f01602080910402602001604051908101604052809291908181526020018280546104de9061104c565b801561052b5780601f106105005761010080835404028352916020019161052b565b820191906000526020600020905b81548152906001019060200180831161050e57829003601f168201915b5050505050908060030160009054906101000a900460ff16905084565b6060600160008373ffffffffffffffffffffffffffffffffffffffff1673ffffffffffffffffffffffffffffffffffffffff168152602001908152602001600020805480602002602001604051908101604052809291908181526020016000905b828210156106555783829060005260206000200180546105c89061104c565b80601f01602080910402602001604051908101604052809291908181526020018280546105f49061104c565b80156106415780601f1061061657610100808354040283529160200191610641565b820191906000526020600020905b81548152906001019060200180831161062457829003601f168201915b5050505050815260200190600101906105a9565b505050509050919050565b6003548111156106a5576040517f08c379a000000000000000000000000000000000000000000000000000000000815260040161069c906110c9565b60405180910390fd5b600160008083815260200190815260200160002060030160006101000a81548160ff021916908315150217905550807f339a5d26292b459dbd1a911e53069f56bd3610e5ca60a312043fc90189c388bf60405160405180910390a250565b60006002826040516107159190610f9a565b90815260200160405180910390205414610764576040517f08c379a000000000000000000000000000000000000000000000000000000000815260040161075b90611135565b60405180910390fd5b6003600081548092919061077790611184565b9190505550604051806080016040528060035481526020013373ffffffffffffffffffffffffffffffffffffffff1681526020018281526020016000151581525060008060035481526020019081526020016000206000820151816000015560208201518160010160006101000a81548173ffffffffffffffffffffffffffffffffffffffff021916908373ffffffffffffffffffffffffffffffffffffffff16021790555060408201518160020190816108329190611378565b5060608201518160030160006101000a81548160ff021916908315150217905550905050600160003373ffffffffffffffffffffffffffffffffffffffff1673ffffffffffffffffffffffffffffffffffffffff168152602001908152602001600020819080600181540180825580915050600190039060005260206000200160009091909190915090816108c79190611378565b506003546002826040516108db9190610f9a565b9081526020016040518091039020819055506003547f9c4ad74928fec1ee86181680df0e76bf575b79ea2a0347f7ed270884bdd26ad7338360405161092192919061144a565b60405180910390a250565b604051806080016040528060008152602001600073ffffffffffffffffffffffffffffffffffffffff168152602001606081526020016000151581525090565b6000604051905090565b600080fd5b600080fd5b600080fd5b600080fd5b6000601f19601f8301169050919050565b7f4e487b7100000000000000000000000000000000000000000000000000000000600052604160045260246000fd5b6109d38261098a565b810181811067ffffffffffffffff821117156109f2576109f161099b565b5b80604052505050565b6000610a0561096c565b9050610a1182826109ca565b919050565b600067ffffffffffffffff821115610a3157610a3061099b565b5b610a3a8261098a565b9050602081019050919050565b82818337600083830152505050565b6000610a69610a6484610a16565b6109fb565b905082815260208101848484011115610a8557610a84610985565b5b610a90848285610a47565b509392505050565b600082601f830112610aad57610aac610980565b5b8135610abd848260208601610a56565b91505092915050565b600060208284031215610adc57610adb610976565b5b600082013567ffffffffffffffff811115610afa57610af961097b565b5b610b0684828501610a98565b91505092915050565b6000819050919050565b610b2281610b0f565b82525050565b600073ffffffffffffffffffffffffffffffffffffffff82169050919050565b6000610b5382610b28565b9050919050565b610b6381610b48565b82525050565b600081519050919050565b600082825260208201905092915050565b60005b83811015610ba3578082015181840152602081019050610b88565b60008484015250505050565b6000610bba82610b69565b610bc48185610b74565b9350610bd4818560208601610b85565b610bdd8161098a565b840191505092915050565b60008115159050919050565b610bfd81610be8565b82525050565b6000608083016000830151610c1b6000860182610b19565b506020830151610c2e6020860182610b5a565b5060408301518482036040860152610c468282610baf565b9150506060830151610c5b6060860182610bf4565b508091505092915050565b60006020820190508181036000830152610c808184610c03565b905092915050565b610c9181610b0f565b82525050565b6000602082019050610cac6000830184610c88565b92915050565b610cbb81610b48565b8114610cc657600080fd5b50565b600081359050610cd881610cb2565b92915050565b610ce781610b0f565b8114610cf257600080fd5b50565b600081359050610d0481610cde565b92915050565b60008060408385031215610d2157610d20610976565b5b6000610d2f85828601610cc9565b9250506020610d4085828601610cf5565b9150509250929050565b600082825260208201905092915050565b6000610d6682610b69565b610d708185610d4a565b9350610d80818560208601610b85565b610d898161098a565b840191505092915050565b60006020820190508181036000830152610dae8184610d5b565b905092915050565b600060208284031215610dcc57610dcb610976565b5b6000610dda84828501610cf5565b91505092915050565b610dec81610b48565b82525050565b610dfb81610be8565b82525050565b6000608082019050610e166000830187610c88565b610e236020830186610de3565b8181036040830152610e358185610d5b565b9050610e446060830184610df2565b95945050505050565b600060208284031215610e6357610e62610976565b5b6000610e7184828501610cc9565b91505092915050565b600081519050919050565b600082825260208201905092915050565b6000819050602082019050919050565b6000610eb28383610baf565b905092915050565b6000602082019050919050565b6000610ed282610e7a565b610edc8185610e85565b935083602082028501610eee85610e96565b8060005b85811015610f2a5784840389528151610f0b8582610ea6565b9450610f1683610eba565b925060208a01995050600181019050610ef2565b50829750879550505050505092915050565b60006020820190508181036000830152610f568184610ec7565b905092915050565b600081905092915050565b6000610f7482610b69565b610f7e8185610f5e565b9350610f8e818560208601610b85565b80840191505092915050565b6000610fa68284610f69565b915081905092915050565b7f4c616e64206e6f7420666f756e6420666f7220676976656e2068617368000000600082015250565b6000610fe7601d83610d4a565b9150610ff282610fb1565b602082019050919050565b6000602082019050818103600083015261101681610fda565b9050919050565b7f4e487b7100000000000000000000000000000000000000000000000000000000600052602260045260246000fd5b6000600282049050600182168061106457607f821691505b6020821081036110775761107661101d565b5b50919050565b7f4c616e64206e6f7420666f756e64000000000000000000000000000000000000600082015250565b60006110b3600e83610d4a565b91506110be8261107d565b602082019050919050565b600060208201905081810360008301526110e2816110a6565b9050919050565b7f446f63756d656e7420616c726561647920726567697374657265640000000000600082015250565b600061111f601b83610d4a565b915061112a826110e9565b602082019050919050565b6000602082019050818103600083015261114e81611112565b9050919050565b7f4e487b7100000000000000000000000000000000000000000000000000000000600052601160045260246000fd5b600061118f82610b0f565b91507fffffffffffffffffffffffffffffffffffffffffffffffffffffffffffffffff82036111c1576111c0611155565b5b600182019050919050565b60008190508160005260206000209050919050565b60006020601f8301049050919050565b600082821b905092915050565b60006008830261122e7fffffffffffffffffffffffffffffffffffffffffffffffffffffffffffffffff826111f1565b61123886836111f1565b95508019841693508086168417925050509392505050565b6000819050919050565b600061127561127061126b84610b0f565b611250565b610b0f565b9050919050565b6000819050919050565b61128f8361125a565b6112a361129b8261127c565b8484546111fe565b825550505050565b600090565b6112b86112ab565b6112c3818484611286565b505050565b5b818110156112e7576112dc6000826112b0565b6001810190506112c9565b5050565b601f82111561132c576112fd816111cc565b611306846111e1565b81016020851015611315578190505b611329611321856111e1565b8301826112c8565b50505b505050565b600082821c905092915050565b600061134f60001984600802611331565b1980831691505092915050565b6000611368838361133e565b9150826002028217905092915050565b61138182610b69565b67ffffffffffffffff81111561139a5761139961099b565b5b6113a4825461104c565b6113af8282856112eb565b600060209050601f8311600181146113e257600084156113d0578287015190505b6113da858261135c565b865550611442565b601f1984166113f0866111cc565b60005b82811015611418578489015182556001820191506020850194506020810190506113f3565b868310156114355784890151611431601f89168261133e565b8355505b6001600288020188555050505b505050505050565b600060408201905061145f6000830185610de3565b81810360208301526114718184610d5b565b9050939250505056fea2646970667358221220fc4fbd5462f4d6b4093d7a5608c3aaeb5cd0e7195b4c0b13b031f71ce43b240764736f6c634300081c0033",
  "linkReferences": {},
  "deployedLinkReferences": {}
}